:020000040000fa
:080000000002040000000000f2
:020000040000fa
:040008001e030000d3
:020000040000fa
:04000c001e030000cf
:020000040000fa
:040010001e030000cb
:020000040000fa
:040014001e030000c7
:020000040000fa
:040018001e030000c3
:020000040000fa
:04001c001e030000bf
:020000040000fa
:040020001e030000bb
:020000040000fa
:040024001e030000b7
:020000040000fa
:040028001e030000b3
:020000040000fa
:04002c00d8020000f6
:020000040000fa
:040030001e030000ab
:020000040000fa
:04003400c8020000fe
:020000040000fa
:040038001e030000a3
:020000040000fa
:04003c001e0300009f
:020000040000fa
:040040001e0300009b
:020000040000fa
:04004400d0020000e6
:020000040000fa
:040048001e03000093
:020000040000fa
:04004c001e0300008f
:020000040000fa
:040050001e0300008b
:020000040000fa
:040054001e03000087
:020000040000fa
:040058001e03000083
:020000040000fa
:04005c001e0300007f
:020000040000fa
:040060001e0300007b
:020000040000fa
:040064001e03000077
:020000040000fa
:040068001e03000073
:020000040000fa
:04006c001e0300006f
:020000040000fa
:040070001e0300006b
:020000040000fa
:040074001e03000067
:020000040000fa
:040078001e03000063
:020000040000fa
:04007c001e0300005f
:020000040000fa
:040080001e0300005b
:020000040000fa
:040084001e03000057
:020000040000fa
:040088001e03000053
:020000040000fa
:04008c001e0300004f
:020000040000fa
:040090001e0300004b
:020000040000fa
:040094001e03000047
:020000040000fa
:040098001e03000043
:020000040000fa
:04009c001e0300003f
:020000040000fa
:0400a0001e0300003b
:020000040000fa
:0400a4001e03000037
:020000040000fa
:0400a8001e03000033
:020000040000fa
:0400ac001e0300002f
:020000040000fa
:0400b0001e0300002b
:020000040000fa
:0400b4001e03000027
:020000040000fa
:0400b8001e03000023
:020000040000fa
:0400bc001e0300001f
:020000040000fa
:0400c0001e0300001b
:020000040000fa
:0400c4001e03000017
:020000040000fa
:0400c8001e03000013
:020000040000fa
:0400cc001e0300000f
:020000040000fa
:0400d0001e0300000b
:020000040000fa
:0400d4001e03000007
:020000040000fa
:0400d8001e03000003
:020000040000fa
:0400dc001e030000ff
:020000040000fa
:0400e0001e030000fb
:020000040000fa
:0400e4001e030000f7
:020000040000fa
:0400e8001e030000f3
:020000040000fa
:0400ec001e030000ef
:020000040000fa
:0400f0001e030000eb
:020000040000fa
:0400f4001e030000e7
:020000040000fa
:0400f8001e030000e3
:020000040000fa
:0400fc001e030000df
:020000040000fa
:040100001e030000da
:020000040000fa
:040104001e030000d6
:020000040000fa
:040108001e030000d2
:020000040000fa
:04010c001e030000ce
:020000040000fa
:040110001e030000ca
:020000040000fa
:040114001e030000c6
:020000040000fa
:040118001e030000c2
:020000040000fa
:04011c001e030000be
:020000040000fa
:040120001e030000ba
:020000040000fa
:040124001e030000b6
:020000040000fa
:040128001e030000b2
:020000040000fa
:04012c001e030000ae
:020000040000fa
:040130001e030000aa
:020000040000fa
:040134001e030000a6
:020000040000fa
:040138001e030000a2
:020000040000fa
:04013c001e0300009e
:020000040000fa
:040140001e0300009a
:020000040000fa
:040144001e03000096
:020000040000fa
:040148001e03000092
:020000040000fa
:04014c001e0300008e
:020000040000fa
:040150001e0300008a
:020000040000fa
:040154001e03000086
:020000040000fa
:040158001e03000082
:020000040000fa
:04015c001e0300007e
:020000040000fa
:040160001e0300007a
:020000040000fa
:040164001e03000076
:020000040000fa
:040208001e030000d1
:020000040000fa
:04020c001e030000cd
:020000040000fa
:040210001e030000c9
:020000040000fa
:040214001e030000c5
:020000040000fa
:040218001e030000c1
:020000040000fa
:04021c001e030000bd
:020000040000fa
:040220001e030000b9
:020000040000fa
:040224001e030000b5
:020000040000fa
:040228001e030000b1
:020000040000fa
:04022c00d8020000f4
:020000040000fa
:040230001e030000a9
:020000040000fa
:04023400c8020000fc
:020000040000fa
:040238001e030000a1
:020000040000fa
:04023c001e0300009d
:020000040000fa
:040240001e03000099
:020000040000fa
:04024400d0020000e4
:020000040000fa
:040248001e03000091
:020000040000fa
:04024c001e0300008d
:020000040000fa
:040250001e03000089
:020000040000fa
:040254001e03000085
:020000040000fa
:040258001e03000081
:020000040000fa
:04025c001e0300007d
:020000040000fa
:040260001e03000079
:020000040000fa
:040264001e03000075
:020000040000fa
:040268001e03000071
:020000040000fa
:04026c001e0300006d
:020000040000fa
:040270001e03000069
:020000040000fa
:040274001e03000065
:020000040000fa
:040278001e03000061
:020000040000fa
:04027c001e0300005d
:020000040000fa
:040280001e03000059
:020000040000fa
:040284001e03000055
:020000040000fa
:040288001e03000051
:020000040000fa
:04028c001e0300004d
:020000040000fa
:040290001e03000049
:020000040000fa
:040294001e03000045
:020000040000fa
:040298001e03000041
:020000040000fa
:04029c001e0300003d
:020000040000fa
:0402a0001e03000039
:020000040000fa
:0402a4001e03000035
:020000040000fa
:0402a8001e03000031
:020000040000fa
:0402ac001e0300002d
:020000040000fa
:0402b0001e03000029
:020000040000fa
:0402b4001e03000025
:020000040000fa
:0402b8001e03000021
:020000040000fa
:0402bc001e0300001d
:020000040000fa
:0402c0001e03000019
:020000040000fa
:0402c4001e03000015
:020000040000fa
:0402c8001e03000011
:020000040000fa
:0402cc001e0300000d
:020000040000fa
:0402d0001e03000009
:020000040000fa
:0402d4001e03000005
:020000040000fa
:0402d8001e03000001
:020000040000fa
:0402dc001e030000fd
:020000040000fa
:0402e0001e030000f9
:020000040000fa
:0402e4001e030000f5
:020000040000fa
:0402e8001e030000f1
:020000040000fa
:0402ec001e030000ed
:020000040000fa
:0402f0001e030000e9
:020000040000fa
:0402f4001e030000e5
:020000040000fa
:0402f8001e030000e1
:020000040000fa
:0402fc001e030000dd
:020000040000fa
:040300001e030000d8
:020000040000fa
:040304001e030000d4
:020000040000fa
:040308001e030000d0
:020000040000fa
:04030c001e030000cc
:020000040000fa
:040310001e030000c8
:020000040000fa
:040314001e030000c4
:020000040000fa
:040318001e030000c0
:020000040000fa
:04031c001e030000bc
:020000040000fa
:040320001e030000b8
:020000040000fa
:040324001e030000b4
:020000040000fa
:040328001e030000b0
:020000040000fa
:04032c001e030000ac
:020000040000fa
:040330001e030000a8
:020000040000fa
:040334001e030000a4
:020000040000fa
:040338001e030000a0
:020000040000fa
:04033c001e0300009c
:020000040000fa
:040340001e03000098
:020000040000fa
:040344001e03000094
:020000040000fa
:040348001e03000090
:020000040000fa
:04034c001e0300008c
:020000040000fa
:040350001e03000088
:020000040000fa
:040354001e03000084
:020000040000fa
:040358001e03000080
:020000040000fa
:04035c001e0300007c
:020000040000fa
:040360001e03000078
:020000040000fa
:040364001e03000074
:020000040000fa
:100400004f8020000e7f24000e01880000000000b5
:10041000000020000000e000020032000001200087
:100420002002880014000700860007000000e0009a
:1004300003003a00004720000100200002003700be
:100440000000200001002000810f70000100320038
:1004500014000700000020000000e000020032004d
:100460000000020000000000240302000000000061
:100470000040da000000fe004440a9000000200017
:100480000000e0000300320000002000a00188000e
:100490004440a800000006008a1f78008b1f7800e7
:1004a0000000060091018800800478000000eb0045
:1004b0001a003700e284440032a0b4009905ba0063
:1004c000e284440032a0b4009906ba00e2844400f9
:1004d00032a0b4000006eb00476fde00fd07b2005b
:1004e000636ce10003003a00ebff07000000eb0043
:1004f0000a003700606ce10004003a00005deb0088
:100500008b05e900fdff3e00040037006168e10053
:10051000010032000086eb000b00070019c7ba008b
:100520001905ba000e04e00003003a000a00e000da
:10053000e0ff3a0000000600fe07b2009e018800be
:100540008a047800f5ff3700395dba008b05e900b1
:100550000c003200295dba008b05e900080032006a
:100560000c00e00003003a00e284440032a0b40032
:10057000f5ff370019ddba008b05e900faff3a00f4
:100580008904e800e184440032a0b40000000600c1
:100590000000fa008460a9000080fa000040060014
:1005a0000000fa0084e0a9000080fa000040060084
:1005b0003600f800809fbe00821f78000600fa0017
:1005c000010a800011079800020a800022079800a3
:1005d0008420a800ae0090001e009000808f500084
:1005e00004003600ae0090001e009000008f500006
:1005f00005003700610880001e00900080805000d8
:100600002e009000008f4000813e20001e007800e8
:1006100000017800110009008280d8006c00b90048
:1006200000007800104088000080fa004f01780038
:100630004f00be003600f900004006000040da001e
:080640000000fe0000000500af
:020000040000fa
:100648000000fa001700070008000700f1f9200071
:1006580020c0b300530007003c00070081000700da
:10066800007d2000000c8800fdff37000000fa0024
:10067800c022ef00c802a900c922a900c902a90026
:10068800c8e2a900c8c2a900cd02a800cd22a900cd
:10069800cce2a800f01f2000601988000080fa0052
:1006a800000006000000fa0060022000303a8800ce
:1006b800213a8000f0f32f0000806000203a880083
:1006c800213a800000fe2f0000806000203a880058
:1006d8004827ef0040a7a90012002000800720004b
:1006e800a1092000337420008049780081497800ee
:1006f8008249780012002000600420007105200063
:100708002374200080497800814978008249780064
:1007180000000000113a800000002700808060007f
:1007280000002100808f5000faff3a00000000000e
:10073800113a800000022000008060000000e00004
:10074800fbff32000080fa00000006000000fa00fb
:10075800210c800080ff2f0000806000200c8800a2
:100768008221ef008021ef008461a900007d200034
:10077800100c8800210c800080ff2f000080600092
:100788006000b300200c88003136800000fe2f0086
:10079800008060002001b300303688000080fa0035
:1007a800000006000400fa00004f780011079800c6
:1007b8001e80fb00e10f500003003200e20f5000e2
:1007c800140032002500370005e1a9000421a90022
:1007d80005a1a90021088000f0fc2f00008060001e
:1007e8002008880004c1a9000441a9000021ef00e5
:1007f8009e009000110888008460a90021058000ef
:100808000000270001007000200588009460a800ff
:1008180005e1a80011e1a9001021a90011a1a90072
:1008280081088000f0fc2f000080600080088800ac
:1008380010c1a9000621ef009e0090006108880001
:1008480084e0a90031058000000027000100700045
:100858003005880094e0a80011e1a8000080fa00a3
:10086800000006000000fa00110a800080ff2f0037
:1008780000806000100a88007134800000fe2f009c
:10088800008060007034880042e1a800110a8000ee
:10089800f0f92f00008060000050a000100a8800c6
:1008a800110a800080ff2f00008060003000b30034
:1008b800100a880021058000f0f82f0000806000f1
:1008c8000060a000200588008420a9009420a800ca
:0808d8000080fa000000060098
:020000040000fa
:1008e00000080000040000000000000000000000fc
:020000040000fa
:0200000401f009
:04000000ffff0000fe
:020000040000fa
:0200000401f009
:04000400ffff0000fa
:020000040000fa
:0200000401f009
:04000800ffff0000f6
:020000040000fa
:0200000401f009
:04000c00810000006f
:020000040000fa
:0200000401f009
:04001000a300000049
:020000040000fa
:0200000401f009
:04001800f0000000f4
:020000040000fa
:0200000401f009
:04001c00deff000003
:00000001FF
